:040000008A15002835
:10000600063083120313FD00FD0B072800000800CD
:06001600000000000800DC
:0A001C000320061603200612080058
:100026008312031306118611B83083163704831220
:0600360088000E20080006
:10003C007F30831603133705F0007008B700831266
:10004C0006118611BF30F00570088316B7007017C3
:0E005C007008B7007008831288000E2008009C
:10006A007F30831603133705F1007108B700711F3B
:10007A004228831206148610452883120610861415
:02008A0008006C
:10008C00803083120313F0007008083E8400FF30A8
:10009C0080000B200B200615061286150616032071
:1000AC0008088316B7008312061286110B200B204A
:1000BC008030F0007008083E8400800183163708F9
:0400CC00F000080038
:1000D000831203130612061586118316370883123E
:0600E00088000E2008005C
:1000E6000030831603133102031C862831087F3C37
:1000F600031C862800303202031C862832083F3C47
:10010600031C86288728D9283108B700352083168E
:100116003208B700B70CB713B70CB713B70CB71341
:10012600132083163108B7001E2046207008B6003B
:1001360046207008B6003208B700B70CB713B70CE4
:10014600B713B70CB713132083163108B7001E2058
:10015600073083163205F0007008B4007008F1000D
:100166000130F00071080319BC28F00D7010FF3E35
:10017600B6287008B4007009B500CA283508B60557
:10018600D6283408B604D6283408B606D628330846
:10019600003A0319C1283308013A0319C428330861
:0E01A600023A0319C7283608B700682008007F
:0E01B400831203135A088A00590882000800BB
:1001C20083120313FB01FA01F9018030F800F10CEC
:1001D200F00C031CF5287408F90775080318750F4D
:1001E200FA070318FB0A0310F01FFD287408FA0728
:1001F20075080318750FFB07FB0CFA0CF90CF80CC9
:10020200031CE8287B08F3007A08F2007908F10061
:060212007808F00008006E
:10021800831603132A08073C03181329B6298312E7
:100228005C0883162802F00083125D08031C013E57
:10023800F101F1025B08F400F501E1207008831672
:10024800AF007108B0002908B7001E2083162A08DD
:10025800B7001320EF015B086F0203188F2983167C
:1002680029087F3C03183929B6292908B700352001
:1002780083162A08B700132083162908B7001E2002
:1002880046207008AC0046207008AC002908B7006A
:10029800352083162A08B700132083162908B700CB
:1002A8001E2083162F0883125E07F0005F080318CC
:1002B800013E83163007F10070088312D9007108D7
:1002C800DA00DA208A110A12F00070088316AD00ED
:1002D800AF0A0319B00A7009AE007B292E08AC00DA
:1002E80087292D08AC0087292D08AC0687292B08FB
:1002F800003A031972292B08013A031975292B08AA
:10030800023A031978292C08B70068208316A90A2D
:100318008312EF0A2F2983162908B7003520831680
:100328002A08B700132083162908B7001E20FF30BB
:100338008316AD00AE01AD292D08AC002D08B7001D
:100348006820B62983162E08AC002E08B70068204E
:10035800B62983162B08003A0319A0292B08013A5D
:060368000319A62908009C
:10036E000030831603132A02031CC2292A083F3CBD
:10037E00031CC229C329F629003028020318C829F4
:10038E00A80128087F3C0318CE297F30A800003032
:10039E0029020318D329A90129087F3C0318D9295A
:1003AE007F30A900280829020318E729280883129C
:1003BE00EF0083162908A80083126F088316A90080
:1003CE0028082902031CF6292808B1002A08B200C1
:1003DE002B08B300732083160313A80AE72908001D
:1003EE000030831603132A02031C022A2A087F3CBC
:1003FE00031C022A032A362A003028020318082A70
:10040E00A80128083F3C03180E2A3F30A8000030F0
:10041E0029020318132AA90129083F3C0318192A97
:10042E003F30A900280829020318272A280883121A
:10043E00EF0083162908A80083126F088316A900FF
:10044E0028082902031C362A2A08B1002808B200FF
:10045E002B08B300732083160313A80A272A08005B
:10046E008312031364088316A8008312660883168A
:10047E00A900831265088316AA00831268088316E2
:10048E00AB00B721831264088316A8008312660896
:10049E008316A900831267088316AA0083126808C0
:1004AE008316AB00B721831265088316A80083124A
:1004BE0067088316A900831264088316AA008312A4
:1004CE0068088316AB00F721831265088316A8000F
:1004DE00831267088316A900831266088316AA0082
:0C04EE00831268088316AB00F721080099
:1004FA008030831203136506F00080307002031DFA
:10050A00882A0030640203188C2AE401E50180304D
:10051A00F000803065067002031D952A64087F3C4E
:10052A0003189B2A7F30E4000030E500803069061A
:10053A00F00080307002031DA42A003068020318FC
:10054A00A82AE801E9018030F000803069067002CB
:10055A00031DB12A68087F3C0318B72A7F30E800D8
:10056A000030E90080306706F00080307002031D19
:10057A00C02A003066020318C42AE601E701803067
:10058A00F000803067067002031DCD2A66083F3CE2
:10059A000318D32A3F30E6000030E70080306B06AC
:1005AA00F00080307002031DDC2A00306A02031852
:1005BA00E02AEA01EB018030F00080306B0670021D
:1005CA00031DE92A6A083F3C0318EF2A3F30EA0074
:1005DA000030EB0064086802F1006508031C013E64
:1005EA006902F2007108ED007208EE0066086A02FC
:1005FA008316A00083126708031C013E6B02831650
:10060A00A10080307206F00080307002031D0F2BAB
:10061A00003071020318202B83126D08003CED0094
:10062A006E08031C013EEE01EE02FF308316A200A3
:10063A00FF30A300242B0130A2000030A300803039
:10064A002106F00080307002031D2D2B003020029D
:10065A0003183C2B2008003CA0002108031C013E83
:10066A00A101A102FF30A400FF30A500402B0130F8
:10067A00A4000030A5008312ED0DEE0D6D10831657
:10068A00A00DA10D2010831264088316B1008312F5
:10069A0066088316B20083126C088316B3007320AF
:1006AA008030831603132106F000803083126E0611
:1006BA007002031D632B6D08831620020318C32BD7
:1006CA0083126D08F0006E08F100F10CF00CF113C2
:1006DA00711BF117700883162002A6007108031C0B
:1006EA00013E2102A7008312031365086906031D50
:1006FA00802B680864060319C22B803083162706EC
:10070A00F00080307002031D8C2B00302602031C7F
:10071A00A02B24088312E607831625080318013E36
:10072A008312E7076D088316A602031CA703831228
:10073A006E088316A702220883126407F000650870
:10074A000318013E83162307F10070088312E400A0
:10075A007108E50083162008A60721080318013E40
:10076A00A7077008B100831266088316B2008312C5
:10077A006C088316B3007320782B242C831603137A
:10078A002008F0002108F100F10CF00CF113711BA4
:10079A00F117700883126D028316A6007108031CF4
:1007AA00013E83126E028316A700831203136708A1
:1007BA006B06031DE22B6A0866060319242C803097
:1007CA0083162706F00080307002031DEE2B0030DE
:1007DA002602031C002C22088312E407831623082E
:1007EA000318013E8312E50783162008A602031C9C
:1007FA00A7032108A702240883126607F0006708E6
:10080A000318013E83162507F10070088312E600DB
:10081A007108E7006D088316A60783126E0803188D
:10082A00013E8316A707831264088316B100700875
:10083A00B20083126C088316B3007320DA2B080007
:10084A00831203136408DE006508DF006808DC0011
:10085A006908DD006608DB006708E0000130E10096
:02086A00080084
:10086C0083120313E8016108003A031D492C05307B
:10087C00DB000730E0000030DE001830DF002030F5
:10088C00DC000030DD0068086407840000080319F0
:10089C006A2C68086407840000088316A800831279
:1008AC0065088316A900831266088316AA008312B2
:1008BC0067088316AB000C21831203135B0AF0004C
:0A08CC007008E507E80A492C08004F
:1008D600831203137008F100F0010830FC00710860
:1008E600F40C03187A2CFC0B732CF1010034031062
:1008F6007F2CF40C0318F107F10CF00CFC0B7C2C8C
:020906000800E7
:100908000030831203136906031D8C2C003068061F
:10091800031D9B2C64088316B10083126608831696
:10092800B20083126A088316B3007320D42D83168D
:100938000313A001A1018312640866028316A200B2
:1009480083126508031C013E67028316A300831205
:100958006808ED006908EE006808F0006908F10011
:10096800F00DF10D70107008EB007108EC007008C4
:10097800033CEB007108031C013EEC01EC028312FE
:100988006D08013EF10000300318013E6E07F200C9
:10099800803083162106F000803072067002031D35
:1009A800D72C710820020318D42D2008831264075D
:1009B8008316B10083126D0866078316B20083128E
:1009C8006A088316B3007320831603132008831262
:1009D80064078316B10083126D0866028316B2009D
:1009E80083126A088316B3007320803083120313BE
:1009F800F0008030831621067002031D052D2008A3
:100A0800003C0318272D2008831264028316B100C6
:100A180083126D0866078316B20083126A0883166C
:100A2800B30073208316031320088312640283160D
:100A3800B10083126D0866028316B20083126A0839
:100A48008316B300732083160313210883126E06DE
:100A5800031D312D6D08831620060319872D831277
:100A68006D0866078316B1002208B10220088312B8
:100A780066078316B20083126A088316B3007320D0
:100A8800831203136D0866028316B1002208B102AF
:100A98002008831266078316B20083126A08831639
:100AA800B3007320803083120313F0008030831664
:100AB80021067002031D622D2008003C0318872DB3
:100AC80083126D0866078316B1002208B102200858
:100AD800831266028316B20083126A088316B30073
:100AE8007320831203136D0866028316B10022086F
:100AF800B1022008831266028316B20083126A08C4
:100B08008316B30073208030831203136C06F00041
:100B180080307002031D922D00306B020318AB2D3C
:100B280083162008F0002108F100F00DF10D701077
:100B3800F00DF10D70100630F0070318F10A700877
:100B48008312EB0771080318013EEC07CF2D6D08DF
:100B580083162002F30083126E08031C013E8316DD
:100B68002102F4007308F0007408F100F00DF10D93
:100B78007010F00DF10D70100A30F0070318F10A2B
:100B880070088312EB0771080318013EEC07013067
:100B9800ED02031CEE038316A00A0319A10AC32C55
:020BA800080043
:100BAA0083120313E701E801E9016708073C031C04
:100BBA002F2E8316B701352067088316B700132036
:100BCA008316B7011E20E60166083F3C031C042E6B
:100BDA0068086407F00065080318013E6907F10018
:100BEA007008D9007108DA00DA208A110A1283160D
:100BFA00B7006820E80A0319E90AE60AE92D403035
:100C0A008316B700352067088316B70013204030D3
:100C1A008316B7001E204030E60066087F3C031C9E
:100C2A002D2E68086407F00065080318013E69075D
:100C3A00F1007008D9007108DA00DA208A110A1264
:100C4A008316B7006820E80A0319E90AE60A122E91
:060C5A00E70ADA2D080094
:100C6000831203136508E90069086702031C4B2E11
:100C700064088316A800831266088316A9008312ED
:100C800069088316AA00831268088316AB00B7218F
:080C90008312E90A342E08006A
:100C9800153083120313FB004B30FC00BE30FD00FF
:100CA800FD0B542EFC0B542EFB0B542E0000080099
:100CB80083120313E10183168612061206118611A8
:100CC80006108610831286128030F0007008083EE5
:100CD80084008001061186110610861486163F309E
:100CE80088000E20C03088000E20061486103F3081
:0C0CF80088000E20C03088000E2008008C
:100D0400DA208A110A128000840AD90A0319DA0A3D
:080D1400F003031D822E08000C
:100D1C008312031306108614E6016608073C031CB5
:100D2C00A82E66088316B7001320E50165083F3C22
:100D3C00031CA62E64088316B7006820E50A9C2EB7
:100D4C00E60A932E86100614E6016608073C031C7F
:100D5C00C02E66088316B7001320E50165083F3CDA
:100D6C00031CBE2E64088316B7006820E50AB42E57
:060D7C00E60AAB2E0800A0
:100F7C0020308400393083120313F0008430D90000
:080F8C000730DA00822608009C
:101000008A11BE278A158316031788018901831266
:10101000871388138A115C268A15E4018A118E26AB
:101020008A155F30E4000930E5008A11D5258A155C
:101030008A114C268A158A114C268A15E4018A11D8
:101040008E268A153E30E4002830E5007C30E6002C
:101050003830E7000130E8008A1130268A15053063
:10106000E4000530E5005430E6002330E7000130AD
:10107000E8008A1137228A158312E401E501E601AE
:10108000E7017F30E8000030E9003F30EA0000303F
:10109000EB000130EC008A117D228A158A114C2662
:1010A0008A150530E2003C306202031884280330C0
:1010B000FB008A30FC005530FD00FD0B5D28FC0B69
:1010C0005D28FB0B5D280000000002308316A8009D
:1010D0003630A900831262088316AA000130AB00E3
:1010E0008A11F7218A150230A8007830A9008312EE
:1010F00062088316AA000130AB008A11B7218A1555
:1011000005308312E20753288A114C268A15E40120
:101110008A118E268A150030E4001030E500083070
:10112000E6000730E7002030E8000030E9008A11CF
:1011300025248A152930E4000130E5000730E60057
:101140000230E7008A1136248A150130E200620875
:101150000A3C031CC7283F30E4000030E500203083
:10116000E6000030E7000330F0006208F4008A1166
:101170006B248A157008E8007108E9000130EA0064
:101180008A1184248A1583120313E20AA7288A117C
:101190004C268A150C30E4001430E5004630E60099
:1011A0003930E7000230E8008A1130268A158A11AA
:1011B0004C268A15FF30E4008A118E268A150030ED
:1011C000E4001030E5000830E6000730E70020308A
:1011D000E8000030E9008A1125248A152030E30058
:1011E0006308E4000530E500E6010230E7008A11FB
:1011F00036248A158A114C268A15C130E40006303F
:10120000E5000330E6000530E7002030E80000305C
:10121000E9008A1125248A153030E3006308E400D0
:101220003C30E5000230E6000230E7008A11362447
:101230008A158A114C268A150030E4001830E50022
:101240000530E6000730E7002030E8000030E90014
:101250008A1125248A155030E3006308E400053024
:10126000E5000430E6000230E7008A1136248A15D2
:101270008A114C268A155F30E4000D30E5000530F8
:10128000E6000730E7002030E8000030E9008A116E
:1012900025248A154230E3006308E4000530E500A8
:1012A0000630E6000230E7008A1136248A158A11DA
:0812B0004C268A1511285B2968
:100D820000340034003400345C3400340C34003459
:100D92000C347C3428347C347C3444347C34243425
:100DA2001034483428345434083400340C340034B9
:100DB2003834443400344434383400342034103469
:100DC2000834103438341034803440340034103451
:100DD20010341034003440340034203410340834D9
:100DE20038344434383400347C3400346434543479
:100DF20048344434543428341C3410347C344C3455
:100E020054342434383454342034043474340C3498
:100E120028345434283408345434383400345034A8
:100E220000348034503400341034283444342834AC
:100E320028342834443428341034043454340834E4
:100E420038344C345C347834143478347C3454344C
:100E520028343834443444347C34443438347C3494
:100E6200543444347C341434043438344434343404
:100E72007C3410347C3400347C34003420344034EC
:100E82003C347C3410346C347C34403440347C3414
:100E920008347C347C3404347C347C3444347C34F4
:100EA2007C34143408343834443478347C34143484
:100EB200683448345434243404347C3404347C3468
:100EC20040347C343C3440343C347C3420347C34F4
:100ED2006C3410346C341C3460341C346434543438
:100EE2004C347C34443400340834103420344434D8
:100EF2007C34003408340434083480348034803440
:060F020004340834003441
:100F0800383478343734203446346F346E3474349B
:020F18000034A3
:0E0F1A006D3469346B3472346F3445340034F6
:100F2800333458343534203443344134503449341C
:100F3800543441344C34533420344F344E344C34CC
:040F480059340034E4
:100F4C00353478343734203446346F346E3474345A
:0C0F5C0020342834763432342934003438
:100F6800353478343734203446346F346E3474343E
:020F7800003443
:1012BE0000340034003400340034F8340834083478
:1012CE0008340834083408340C340C340C340C3420
:1012DE000C340A340A340A340A340A340A3409340F
:1012EE000934093409340934093409340934093408
:1012FE0009340934093409340934093409340934F8
:10130E0009340934893489348934893489348934E7
:10131E008934893489348934893489348934093457
:10132E0009340934093409340934093409340934C7
:10133E00093409340D34FD340D34C3340634FC3411
:10134E0000340034003400340034003400340034EF
:10135E0000340034003400340034003400340034DF
:10136E0000340034003400340034003400340034CF
:10137E0000340034003400340034003400340034BF
:10138E0000340034003400340034003400340034AF
:10139E00003400340034003400340034003400349F
:1013AE00003400340034003400340034003400348F
:1013BE0000340034003400340034FF340034003480
:1013CE00003400340034003400340034003400346F
:1013DE00F034F034F034F034F034E034E034F034FF
:1013EE00F034F034F034F034E034C034C034E0344F
:1013FE00F034F034F034F034F034E034C0340034EF
:10140E0000340034FF34FF34FF34FF34FF34C33470
:10141E00C334C334C334C334C334C3340334003489
:10142E00003400340034003400340034003400340E
:10143E00003400340034FF34F0344F34E034FF34E1
:10144E00603460346034203420342034203420342E
:10145E0020342034203420342034203420342034DE
:10146E00403440344034403480340034003400344E
:10147E0000340034003400340034003400340034BE
:10148E0000340034003400340034003400340034AE
:10149E00003400340034003400340034003400349E
:1014AE00003400340034003400340034003400348E
:1014BE0000340034003400340034FF34003400347F
:1014CE00003400340034003400340034003400346E
:1014DE00FF34FF34FF34FF34FF3400340034003463
:1014EE000034FF34FF34FF34FF34FF340034003453
:1014FE0000340034FF34FF34FF34FF34FF34003443
:10150E0000340034FF34FF34FF34FF34FF348134B1
:10151E008134813481348134813481348034003497
:10152E00003400340034003400340034003400340D
:10153E00003400340034FF340134F83408340834F5
:10154E0008340834083408340834083408340834AD
:10155E0008340834083408341034E0341834243491
:10156E00C4344634823482348534D934663470348B
:10157E00A034C0346034603420342034A034A0341D
:10158E00E034E034C0344034403480348034C034ED
:10159E0040348034003400340034003400340034DD
:1015AE00003400340034003400340034003400348D
:1015BE00003400340034003400343F34603460347E
:1015CE006034E034603460346034603460346034ED
:1015DE00633463346334633463346034603460344E
:1015EE00603463346334633463346334603460343E
:1015FE00603460346334633463346334633460342E
:10160E00603460346334633463346334633463341A
:10161E006334633463346334633463346334603407
:10162E00603460346034603460346034403440344C
:10163E004034E034E034FF34F63401340E340634F2
:10164E0006340234023402340234023402340234D8
:10165E0002340234023402348234433472343E345F
:10166E00233410341034003407340334033402347A
:10167E0004340434043404340434043404341C3484
:10168E00103410341034113411340934093429341F
:10169E007034203443340534F0347E34AE34803428
:1016AE003834003400340034003400340034003454
:1016BE00003400340034003400340034003400347C
:1016CE000034013401340134013401340134013465
:1016DE00013401347F347F347F347F34FF34FF3460
:1016EE00F734FB347B34BF345F345D347D34BD342A
:1016FE00BD343F345D345934B1347334F334E5348E
:10170E00CF341B343F347734FF34CF34BF34FF34FF
:10171E00FF34FF34FF34FF34FF34FF34FF347F34A3
:10172E007F347F347F347F347F347F347F34FF3493
:10173E00FF34FF347F347F347D347834783478341A
:10174E0078347834F83478347834783478347834AB
:10175E007834F834F834E8348F34003400340034FC
:10176E00003400340034003400348034F034F83463
:10177E007834BC34DC345C34FC341C341C343C34DF
:10178E005C345C343C347834F834F8346034C0342F
:10179E008F34A834D8348834313444344834323415
:1017AE00A03460340034003400340034003400348B
:1017BE000034003400348034C034F834F834F83453
:1017CE00F834FC34FE34FE34FE34FE34FE34FE3483
:1017DE00FE34FE34FE34FE34FE34FF34FF34FF3468
:1017EE00FF34FF34F634EF34D034F634AE34AD3447
:1017FE00A9348034D134D034E034F734F934FF34A2
:10180E00FF34FC34DC34F0347F34FF34DF34FF3407
:10181E00FF34FF34FF34FF34FF34FE34FE34FF3424
:10182E00FF34FF34FF34FF34FF34FF34FE34FF3413
:10183E00FF34FF34FF34FF34FF34FF34FE34FE3404
:10184E00FE34FE34FE34FE34FE34FE34FE34FE34FA
:10185E00FE34FE34FE34FE34FF34FF34FF34FF34E6
:10186E00FF34FF34FE34FF34BE34FF34FF34FD3416
:10187E00F034EF34DD34DF34FE34A8348834AA3447
:10188E00C434D034E434E634F8347F347E349C34BB
:10189E00DF34E234F234F234F234F234F234B1346E
:1018AE00203400340034003400340034003400346A
:1018BE000034003400340134013401340134033473
:1018CE0003340334073407340734073407340F3432
:1018DE000F340F3407340F340F340F3407340734FA
:1018EE000F340E340F340D340F342F342B342B347D
:1018FE002B342B342B342F346F34EF34FF34FD3430
:10190E00FD34FF34FE34FF34FF34FF34FF34FF3434
:10191E00BF34BF34EF34EF34EF34BF34FF34BF3451
:10192E00FF34FF34FF34FF34FF34FF34FF34FF3411
:10193E00FF34FF34FF34FF34FF34FF34FF34FF3401
:10194E00FF34FF34FF34FF34FF34FF34FF34FF34F1
:10195E00FF34FF34FF34FF347F347F347F347F34E1
:10196E00FF34FF34BF34BF34BF34BF34FF34FE34D2
:10197E00FF34FD34FF34FF34FF34FB34FF34FF34C7
:10198E00FF347F347D343F341F341F341F341F34F3
:10199E001F341F343F340F340F34073407340334ED
:1019AE000334033400340034003400340034003483
:1019BE000034003400340034003400340034003479
:1019CE000034003400340034003400340034003469
:1019DE000034003400340034003400340034003459
:1019EE000034003400340034003400340034003449
:1019FE000034003400340034003400340034003439
:101A0E000034003400340034003401340134003426
:101A1E000134013400340034003400340034003416
:101A2E000034003400340034013401340134013404
:101A3E0001340134013401340334033403340B34E0
:101A4E000B340B340B34073403340E3406340634A3
:101A5E000634023412341334133403341734153469
:101A6E00153411340134133413340334063406346C
:101A7E000E340F340F3407340F340F340F340B344D
:101A8E0002340034003400340034003400340034A6
:101A9E000034003400340034003400340034003498
:101AAE000034003400340034003400340034003488
:101ABE0000340034003400340034003400344F3429
:101ACE000034003400340734003407340034143446
:101ADE007F3414347F34143424342A347F342A343B
:101AEE0012342334133408346434623436344934B3
:101AFE005534223420340034053403340034003499
:101B0E0000341C3422344134003400344134223445
:101B1E001C340034143408343E340834143408347D
:101B2E0008343E3408340834503430340034003431
:101B3E00003408340834083408340834003460346F
:101B4E006034003400342034103408340434023449
:101B5E003E345134493445343E34003442347F34BB
:101B6E0040340034423461345134493446342134E3
:101B7E00413445344B3431341834143412347F34F8
:101B8E001034273445344534453439343C344A34E2
:101B9E004934493430340134713409340534033452
:101BAE0036344934493449343634063449344934A8
:101BBE0029341E34003436343634003400340034C4
:101BCE00563436340034003408341434223441345C
:101BDE0000341434143414341434143400344134B2
:101BEE0022341434083402340134513409340634A6
:101BFE003E3441345D3455341E347E341134113448
:101C0E0011347E347F3449344934493436343E34C9
:101C1E0041344134413422347F344134413422340E
:101C2E001C347F3449344934493441347F340934C7
:101C3E000934093401343E344134493449347A3458
:101C4E007F340834083408347F34003441347F3410
:101C5E00413400342034403441343F3401347F3435
:101C6E0008341434223441347F3440344034403408
:101C7E0040347F3402340C3402347F347F340434E5
:101C8E00083410347F343E344134413441343E34D0
:101C9E007F3409340934093406343E344134513426
:101CAE0021345E347F3409341934293446342634D1
:101CBE004934493449343234013401347F340134E7
:101CCE0001343F344034403440343F341F342034E8
:101CDE00403420341F343F344034383440343F34A1
:101CEE0063341434083414346334073408347034D1
:101CFE0008340734613451344934453443340034A4
:101D0E007F34413441340034023404340834103406
:101D1E0020340034413441347F34003404340234EE
:101D2E0001340234043440344034403440344034BE
:101D3E000034003403340534003420345434543425
:101D4E00543478347F34443444344434383438345E
:101D5E0044344434443444343834443444344434C1
:101D6E007F343834543454345434183404340434F2
:101D7E007E340534053408345434543454343C34ED
:101D8E007F340834043404347834003444347D34DD
:101D9E00403400342034403444343D3400347F34F5
:101DAE001034283444340034003441347F34403409
:101DBE0000347C3404347C34043478347C34083479
:101DCE0004340434783438344434443444343834A9
:101DDE007C34143414341434083408341434143465
:101DEE0014347C347C3408340434043400344834E1
:101DFE005434543454342434043404343F3444348A
:101E0E0044343C344034403420347C341C3420344C
:101E1E00403420341C343C344034303440343C3470
:101E2E00443428341034283444340C345034503470
:101E3E0050343C344434643454344C3444340834D4
:101E4E0036344134413400340034003477340034B5
:101E5E000034003441344134363408340834083404
:101E6E002A341C34083408341C342A340834083418
:101E7E00FF34FF34FF34FF34FF34063409340934A1
:041E8E0006340034E2
:102000000034003400340034003400340034003430
:10201000003406345F345F34063400340034003456
:1020200000340734073400340734073400340034F4
:1020300014347F347F3414347F347F3414340034C8
:1020400024342E346B346B343A341234003400347C
:1020500046346634303418340C3466346234003418
:1020600030347A344F345D3437347A344834003481
:1020700004340734033400340034003400340034B2
:1020800000341C343E3463344134003400340034B2
:102090000034413463343E341C34003400340034A2
:1020A00008342A343E341C341C343E342A34083478
:1020B000083408343E343E340834083400340034E4
:1020C00000348034E03460340034003400340034B0
:1020D0000834083408340834083408340034003430
:1020E0000034003460346034003400340034003490
:1020F0006034303418340C34063403340134003482
:102100003E347F34713459344D347F343E3400349E
:10211000403442347F347F3440344034003400341F
:1021200062347334593449346F34663400340034C3
:1021300022346334493449347F3436340034003433
:1021400018341C34163453347F347F345034003404
:1021500027346734453445347D3439340034003411
:102160003C347E344B3449347934303400340034D8
:1021700003340334713479340F34073400340034B9
:1021800036347F34493449347F34363400340034B3
:1021900006344F34493469343F341E34003400343B
:1021A00000340034663466340034003400340034C3
:1021B00000348034E63466340034003400340034B3
:1021C00008341C3436346334413400340034003471
:1021D0002434243424342434243424340034003487
:1021E00000344134633436341C3408340034003451
:1021F00002340334513459340F340634003400347B
:102200003E347F3441345D345D341F341E34003439
:102210007C347E34133413347E347C340034003404
:1022200041347F347F34493449347F343634003488
:102230001C343E346334413441346334223400343A
:1022400041347F347F34413463343E341C340034B1
:1022500041347F347F3449345D3441346334003455
:1022600041347F347F3449341D3401340334003425
:102270001C343E346334413451347334723400348A
:102280007F347F34083408347F347F3400340034A2
:10229000003441347F347F3441340034003400341E
:1022A00030347034403441347F343F3401340034AE
:1022B00041347F347F3408341C3477346334003441
:1022C00041347F347F3441344034603470340034DE
:1022D0007F347F340E341C340E347F347F3400342A
:1022E0007F347F3406340C3418347F347F34003428
:1022F0001C343E346334413463343E341C34003483
:1023000041347F347F34493409340F340634003487
:102310001E343F34213471347F345E340034003451
:1023200041347F347F34093419347F3466340034C7
:1023300026346F344D34593473343234003400341D
:10234000033441347F347F34413403340034003467
:102350007F347F34403440347F347F340034003461
:102360001F343F34603460343F341F340034003451
:102370007F347F343034183430347F347F34003449
:10238000433467343C3418343C34673443340034C9
:1023900007344F34783478344F3407340034003401
:1023A00047346334713459344D34673473340034F2
:1023B00000347F347F3441344134003400340034FD
:1023C0000134033406340C341834303460340034AF
:1023D0000034413441347F347F34003400340034DD
:1023E00008340C340634033406340C340834003416
:1023F000803480348034803480348034803480343D
:10240000003400340334073404340034003400341E
:1024100020347434543454343C34783440340034EC
:1024200041347F343F3448344834783430340034D5
:1024300038347C34443444346C342834003400342C
:1024400030347834483449343F347F3440340034B5
:1024500038347C34543454345C341834003400340C
:1024600048347E347F344934033402340034003439
:102470009834BC34A434A434F8347C3404340034A8
:1024800041347F347F34083404347C34783400346D
:10249000003444347D347D3440340034003400341E
:1024A0006034E03480348034FD347D3400340034D2
:1024B00041347F347F34103438346C344434003445
:1024C000003441347F347F344034003400340034ED
:1024D0007C347C34183438341C347C347834003404
:1024E0007C347C34043404347C3478340034003458
:1024F00038347C34443444347C343834003400344C
:102500008434FC34F834A43424343C341834003497
:1025100018343C342434A434F834FC348434003487
:1025200044347C3478344C3404341C34183400344F
:1025300048345C3454345434743424340034003417
:10254000003404343E347F344434243400340034C2
:102550003C347C34403440343C347C3440340034AB
:102560001C343C34603460343C341C34003400345B
:102570003C347C347034383470347C343C34003433
:1025800044346C343834103438346C3444340034CB
:102590009C34BC34A034A034FC347C34003400348B
:1025A0004C34643474345C344C346434003400345B
:1025B000083408343E347734413441340034003434
:1025C000003400340034773477340034003400347D
:1025D0004134413477343E34083408340034003414
:1025E000023403340134033402340334013400343C
:1025F000703478344C3446344C347834703400348D
:102600000E349F349134B134FB344A3400340034F6
:102610003A347A34403440347A347A3440340034B2
:1026200038347C34543455345D3419340034003437
:10263000023423347534553455347D347B3442347C
:1026400021347534543454347D3479344034003476
:1026500021347534553454347C3478344034003467
:1026600020347434573457347C3478344034003454
:1026700018343C34A434A434E434403400340034FA
:1026800002343B347D34553455345D341B340234CC
:1026900039347D34543454345D34193400340034C6
:1026A00039347D34553454345C34183400340034B7
:1026B000013445347C347C344134013400340034FA
:1026C0000234033445347D347D34433402340034E1
:1026D000013445347D347C344034003400340034DB
:1026E00079347D341634123416347D347934003420
:1026F000703478342B342B34783470340034003414
:1027000044347C347C3455345534453400340034FE
:1027100020347434543454347C347C34543454343D
:102720007C347E340B3409347F347F3449340034B4
:1027300032347B34493449347B343234003400340D
:1027400032347A34483448347A3432340034003401
:1027500032347A344A3448347834303400340034F3
:102760003A347B34413441347B347A34403400345D
:102770003A347A3442344034783478344034003453
:102780009A34BA34A034A034FA347A3400340034A1
:10279000013419343C34663466343C341934013421
:1027A0003D347D34403440347D343D340034003495
:1027B00018343C342434E734E734243424340034EB
:1027C00068347E347F3449344334663420340034F2
:1027D0002B342F34FC34FC342F342B3400340034AD
:1027E000FF34FF34093409342F34F634F834A0347C
:1027F0004034C0348834FE347F3409340334023426
:1028000020347434543455347D34793440340034B5
:10281000003444347D347D34413400340034003499
:102820003034783448344A347A3432340034003422
:1028300038347834403442347A347A344034003492
:102840007A347A340A340A347A34703400340034F6
:102850007D347D34193431347D347D34003400349A
:10286000003426342F3429342F342F3428340034C4
:10287000003426342F3429342F34263400340034E5
:10288000303478344D3445346034203400340034EE
:102890003834383408340834083408340034003408
:1028A00008340834083408343834383400340034F8
:1028B0004F346F3430341834CC34EE34BB3491346C
:1028C0004F346F34303418346C347634FB34F9348C
:1028D0000034003400347B347B3400340034003462
:1028E00008341C343634223408341C343634223450
:1028F000223436341C340834223436341C34083440
:10290000AA34003455340034AA3400345534003429
:10291000AA345534AA345534AA345534AA3455341B
:10292000DD34FF34AA347734DD34AA34FF3477340D
:10293000003400340034FF34FF34003400340034F9
:10294000103410341034FF34FF34003400340034B9
:10295000143414341434FF34FF340034003400349D
:1029600010341034FF34FF340034FF34FF340034AB
:1029700010341034F034F0341034F034F0340034C7
:10298000143414341434FC34FC3400340034003473
:1029900014341434F734F7340034FF34FF34003483
:1029A00000340034FF34FF340034FF34FF3400348B
:1029B00014341434F434F4340434FC34FC3400346B
:1029C000143414341734173410341F341F340034C3
:1029D000103410341F341F3410341F341F340034AB
:1029E0001434143414341F341F34003400340034CD
:1029F000103410341034F034F03400340034003427
:102A00000034003400341F341F34103410341034B8
:102A10001034103410341F341F3410341034103478
:102A2000103410341034F034F034103410341034C6
:102A3000003400340034FF34FF34103410341034C8
:102A40001034103410341034103410341034103466
:102A5000103410341034FF34FF3410341034103478
:102A6000003400340034FF34FF341434143414348C
:102A700000340034FF34FF340034FF34FF341034AA
:102A8000003400341F341F34103417341734143416
:102A900000340034FC34FC340434F434F43414349E
:102AA00014341434173417341034173417341434DE
:102AB00014341434F434F4340434F434F434143466
:102AC00000340034FF34FF340034F734F734143466
:102AD00014341434143414341434143414341434B6
:102AE00014341434F734F7340034F734F73414342E
:102AF0001434143414341734173414341434143490
:102B0000103410341F341F3410341F341F34103469
:102B1000143414341434F434F434143414341434B5
:102B200010341034F034F0341034F034F034103405
:102B3000003400341F341F3410341F341F34103459
:102B40000034003400341F341F341434143414346B
:102B5000003400340034FC34FC34143414341434A1
:102B600000340034F034F0341034F034F0341034E5
:102B700010341034FF34FF341034FF34FF34103479
:102B8000143414341434FF34FF341434143414342F
:102B90001034103410341F341F3400340034003427
:102BA000003400340034F034F03410341034103475
:102BB000FF34FF34FF34FF34FF34FF34FF34FF347D
:102BC000F034F034F034F034F034F034F034F034E5
:102BD000FF34FF34FF34FF34003400340034003459
:102BE0000034003400340034FF34FF34FF34FF3449
:102BF0000F340F340F340F340F340F340F340F34BD
:102C000038347C3444346C3438346C3444340034D8
:102C1000FC34FE342A342A343E3414340034003474
:102C20007E347E34023402340634063400340034F8
:102C300002347E347E3402347E347E3402340034F6
:102C4000633477345D34493463346334003400349E
:102C500038347C3444347C343C340434043400341C
:102C60008034FE347E34203420343E341E3400342C
:102C70000434063402347E347C34063402340034A6
:102C80009934BD34E734E734BD349934003400342A
:102C90001C343E346B3449346B343E341C340034C1
:102CA0004C347E347334013473347E344C34003409
:102CB000303478344A344F347D343934003400347D
:102CC00018343C3424343C343C3424343C341834FC
:102CD0009834FC3464343C343E3427343D34183466
:102CE0001C343E346B3449344934003400340034ED
:102CF0007E347F34013401347F347E340034003438
:102D00002A342A342A342A342A342A340034003427
:102D1000443444345F345F34443444340034003445
:102D2000403451345B344E34443440340034003445
:102D3000403444344E345B34513440340034003435
:102D4000003400340034FE34FF34013407340634D8
:102D50006034E0348034FF347F3400340034003495
:102D6000083408346B346B340834083400340034CD
:102D700024343634123436342434363412340034A5
:102D8000003406340F3409340F3406340034003470
:102D90000034003400341834183400340034003463
:102DA0000034003400341034103400340034003463
:102DB000103430347034C034FF34FF340134013403
:102DC00000341F341F3401341F341E3400340034E7
:102DD000003419341D3417341234003400340034F4
:102DE000003400343C343C343C343C340034003453
:102DF000003400340E341F34113411341F340E34B7
:1030000000340034003400340034003400345F34C1
:1030100000340034003407340034073400341434EE
:103020007F3414347F34143424342A347F342A34E3
:10303000123423341334083464346234363449345B
:103040005534223450340034053403340034003411
:1030500000341C34223441340034003441342234EE
:103060001C34003408342A341C342A34083408341C
:1030700008343E34083408340034503430340034DA
:103080000034083408340834083408340034303448
:103090003034003400342034103408340434023422
:1030A0003E345134493445343E34003442347F3464
:1030B000403400344234613451344934463421348C
:1030C000413445344B3431341834143412347F34A1
:1030D0001034273445344534453439343C344A348B
:1030E00049344934303401347134093405340334FB
:1030F0003634493449344934363406344934493451
:1031000029341E340034363436340034003400346C
:103110005634363400340034003408341434223445
:1031200041341434143414341434143441342234F7
:103130001434083400340234013451340934063470
:1031400032344934793441343E347E3411341134CC
:1031500011347E347F3449344934493436343E3472
:1031600041344134413422347F34413441342234B7
:103170001C347F3449344934493441347F34093470
:103180000934013401343E34413441345134323451
:103190007F340834083408347F34003441347F34B9
:1031A000413400342034403441343F3401347F34DE
:1031B00008341434223441347F34403440344034B1
:1031C00040347F340234043402347F347F34043496
:1031D000083410347F343E344134413441343E3479
:1031E0007F3409340934093406343E3441345134CF
:1031F00021345E347F34093419342934463446345A
:103200004934493449343134013401347F34013490
:1032100001343F344034403440343F341F34203490
:10322000403420341F347F342034183420347F3429
:103230006334143408341434633403340434783479
:103240000434033461345134493445344334003454
:1032500000347F34413441340234043408341034AF
:103260002034413441347F34003400340434023497
:103270000134023404344034403440344034403467
:1032800000340134023404340034203454345434CF
:10329000543478347F344834443444343834383403
:1032A000443444344434203438344434443448348A
:1032B0007F343834543454345434183408347E341D
:1032C00009340134023408341434543454343C3452
:1032D0007F340834043404347834003444347D3486
:1032E000403400342034403444343D34003400341D
:1032F0007F34103428344434003441347F34403433
:1033000000347C3404341834043478347C34083485
:103310000434043478343834443444344434383451
:103320007C3414341434143408340834143414340D
:1033300018347C347C34083404340434083448347D
:10334000543454345434203404343F3444344034FA
:1033500020343C344034403420347C341C34203419
:10336000403420341C343C344034303440343C3419
:10337000443428341034283444340C345034503419
:1033800050343C344434643454344C344434003485
:103390000834363441340034003400347F3400348F
:1033A00000340034413436340834003408340834EE
:1033B0002A341C34083408341C342A3408340834C1
:04400E00F22F000786
:00000001FF
