:02000000FD2BD6
:06000600000000000800EC
:0E000C00213083120313FD00FD0B0A280800AB
:10001A000F3083120313FC004730FD00FD0B132839
:0A002A00FC0B132800000000080082
:0E003400F201F101F001F801F30100300800C3
:1000420083120313F801F9011030FC00710DF80D51
:10005200F90D7408F8027508031C750FF9020318EC
:1000620039287408F80775080318750FF907031083
:0A007200F00DF10DFC0B272808002B
:10007C0083120313CF1B44288612452886164F1B68
:10008C00492806124A280616CF1A4E2886114F28E0
:10009C0086154F1A5328061154280615311858285E
:1000AC00061459280610861403208610CF196028D0
:1000BC008612612886164F196528061266280616C0
:1000CC00CF186A2886116B2886154F186F280611D1
:1000DC007028061531187428061475280610861415
:1000EC0003208610311C7C280D207D28062008005A
:1000FC007B15FB1F88280130F300F201F101F001A0
:08010C00FA0DF20CFF300800AF
:08011400FA1FF213003008008D
:10011C000E3083120313FD00FD0B92280000080023
:10012C0083120313CD0105304D020318A4284D088A
:10013C004C07840020308000CD0A99284D084C07CC
:10014C0084008001CD034D084C07CE000A30F4002A
:10015C00F5014A08F0004B08F10021207808F00066
:10016C007908F1003030F0074E08840070088000E8
:10017C000A30F400F5014A08F0004B08F100212088
:10018C007008CA007108CB0000307106031DD0281E
:10019C0000307006031DD328D528CD03A9280800EC
:1001AC008312031331104A08CF003E20311408008B
:1001BC007B14FB1FE928F201FA1FFF30F200F1005B
:0A01CC00F000FA0DF20CFF300800FD
:1001D600A0017208031D00297108F2007008F100E1
:1001E600F001A0157208031D00297108F200F10143
:1001F600A0112016720803190E292008F302031D08
:10020600031C12290310F21B1629F00DF10DF20D35
:10021600F30B062912290130FC001A201929023095
:0E022600FC007E2019290430FC008A2008000C
:06023400FB15FF3008007D
:10023A00FB14FB1F2729FF30F300F200F100F00046
:08024A00FA0DF20CFF30080070
:0E025200831203132D088A002C088200080076
:1002600083120313C601C7014108C8004208C90030
:1002700080304206F00080307002031D41290030BA
:10028000410203184F290130C6000030C700410861
:10029000003CC8004208031C013EC901C9024808CD
:1002A000CA004908CB004308CC0096200630C400A1
:1002B0000030C5004508003C031D60294408003C8F
:1002C00003187B2944084307F20001304402F00080
:1002D0000030031C013E4502F10070084307840012
:1002E0000008F00072088400700880000130C40229
:1002F000031CC5035A2943088400203080004608A7
:10030000470403199929C401C5014408430784001F
:100310000008203A031D9029C40A0319C50A85293B
:100320000130C402031CC5034408430784002D3078
:040330008000080041
:1003340083120313FB0173080319D7297208FA0007
:10034400F2178E30F302F31FDA29F309F30A0830A7
:100354007302031CBD29F300F10D7208F100F201D0
:1003640008307302031CBD29F300F10DF101730879
:10037400031D0310C52973080319C5290310F20CC2
:10038400F10CF30BC0297B1B711CCF29031CCF2953
:10039400F10A0319F20AF21BE629FA1FE929F20904
:1003A400F109F10A0319F20AE929F201F101E92933
:1003B4007B14FB1FEC29F201FA1FEC29FF30F20039
:1003C400F100FA0DF20CEC290130FC00EE290030AA
:1003D400FC00EE29FF30FC00FC080319F229DE20A2
:0A03E4007108F0007208F100080033
:1003EE00831203139F01C0309F042109F00070088F
:1003FE0083169F051F179F1783124108F000F00DFB
:10040E007010F00D7010F00D701070089F041F1416
:10041E008E201F151F1D152A0000112A1F101E08E1
:10042E00F100F00183161E08F0040030F1040800FC
:10043E0083120313FB017308031D77080319762A31
:10044E0072087606FA007708F3077E30031C332A0B
:10045E00F3020318792A362AF302031C7C2A720847
:10046E00F8007108FC007008FD00F817F61703106D
:10047E00F201F101F0011830A0007D1C502A740821
:10048E00F00775080318750FF10776080318760F35
:10049E00F207F20CF10CF00CF80CFC0CFD0C031036
:1004AE00A00B442AF21B602AF80DF00DF10DF20D8F
:1004BE00F3037B1B701C722AF81F722AF00A0319B1
:1004CE00F10A0319F20A031D722AF20CF10CF00C58
:1004DE00F30A0319792AFA1FF21300307E2A01302B
:1004EE001A207E2A02301D217E2A04307E20000032
:0204FE000800F4
:10050000831203137008F8007108F000F101F20182
:10051000F301FB01FC019630F300FA017008F100D1
:0C0520007808F000F801F201EB20080060
:10052C00FF3083120313AE00FF30AF00FF30B0007A
:10053C00FF309F01C0309F042109F0007008831622
:0C054C009F051F179F1783121F14080043
:1005580029218A110A128000840AAC0A0319AD0AFB
:08056800F003031DAC2A08009A
:1005700083160313861006100611861106128612C2
:1005800083128610061086120612861106110D209F
:100590000D200D20861506158614032086100D20CB
:1005A0008614032086100D208614032086100D204B
:1005B00006118614032086100D2086140320861051
:1005C000861186168614032086100D2086120615C5
:1005D00086140320861006118614032086100D2031
:1005E00086140320861006158614032086100D201D
:1005F0000611861403208610861606168615061523
:0C0600008614032086100D203114080021
:10060C00831203137408003A031D212B7508003A5A
:10061C00031D212B7608003A031D212B7708003A85
:10062C00031D212BFF30F000FF30F1007F30F20072
:10063C00FF30F300BC2B8312031377080319B02B84
:10064C0073080319B32B720876068039FA00F21777
:10065C00F617A0017208F8007108FC007008FD0084
:10066C007408FD027508031C750FFC027608031C48
:10067C00760FF802F801FC01FD01031C4C2B031052
:10068C00F20CF10CF00CF80C0130A0007708F3021E
:10069C00031C562B7E302007F3070318B62B5B2B5D
:1006AC007E302007F307031CB92B1830FA07FD0D19
:1006BC00FC0DF80DF00DF10DF20DA00D7408F0020B
:1006CC007508031C750FF1027608031C760FF202F5
:1006DC00760DA004201C742B7D147F2B7408F0075E
:1006EC0075080318750FF10776080318760AF207D8
:1006FC007D10FA031F307A05031D5D2B7B1B7D1CBF
:10070C00A62B0310F00DF10DF20DA00D7408F002E4
:10071C007508031C750FF1027608031C760FF202A4
:10072C00760D20040139FD070318FC0A0319F80A99
:10073C00031DA62BF80CFC0CFD0CF30A0319B62BAD
:10074C00FA1FF8137808F2007C08F1007D08F0001D
:10075C000030BB2B01301A21BB2B02301A20BB2BD3
:0E076C0004301D21BB2B08307E200000080049
:10077A00CF2B803083120313C100E22BC030C1009B
:10078A00E22B9430C100E22BD430C100E22B80303E
:10079A00C100E22B831203134108013A0319BE2B4D
:1007AA004108023A0319C32B4108033A0319C62B1D
:1007BA004108043A0319C92BCC2B4203F000410823
:1007CA00F0077008C1007008CF003E203110C40144
:1007DA0044084307840000080319FB2B4408430715
:1007EA0084000008CA00D620C40AED2B3114080080
:1007FA007C24831603138601FF3083128600FF30A0
:10080A0083168600B8220130CF003E200C30CF007C
:10081A003E2096228316860183128501FF308316B5
:10082A00850001308312C1000130C2002230C300AA
:10083A00BD230130C100F72180227008B20071087F
:10084A00B3007208B4007308B5000030F400003039
:10085A00F5002030F6008130F7001F220030F40046
:10086A000030F5002030F6008230F7001F220030F9
:10087A00F4000030F5000030F6008930F700062356
:10088A007008B2007108B3007208B4007308B500AA
:10089A009A217008C1007108C2003630C3003021A5
:1008AA000230C1000130C2003630C300BD230B3014
:1008BA00FB002630FC005D30FD00FD0B622CFC0BBA
:0E08CA00622CFB0B622C000000001E2C6B2C1D
:1008F800213084000B3083120313F0007130AC00F8
:080908000430AD00AC22080030
:0208E2000F34D1
:1008E4004134443443342034563461346C347534E4
:0408F4006534003433
:02400E004A2F37
:00000001FF
