:020000001129C4
:10000600063083120313FD00FD0B072800000800CD
:0A001600032006160320061208005E
:100020007F30831203132905F0007008A900061120
:100030008611BF30F0057008A90070177008A9007C
:08004000700888000B20080085
:100048008312031306118611B830290488000B2087
:0200580008009E
:0E005A008312031322088A0021088200080086
:100068007F30831203132905F1007108A900711F5D
:0E007800402806148610422806108614080040
:1000860083120313061206158611290888000B2011
:02009600080060
:1000980083120313A601A701A8012608073C031C25
:1000A8009E28A90134202608A9002420A90110208F
:1000B800A50125083F3C031C772827082307F000E3
:1000C80024080318013E2807F1007008A1007108F0
:1000D800A2002D208A110A12A9004320A70A031999
:1000E800A80AA50A5D284030A90034202608A900DE
:1000F80024204030A90010204030A50025087F3C6E
:10010800031C9C2827082307F00024080318013E35
:100118002807F1007008A1007108A2002D208A119B
:100128000A12A9004320A70A0319A80AA50A8228C7
:06013800A60A5128080090
:10013E00063083120313FB001330FC00AD30FD00BC
:10014E00FD0BA728FC0BA728FB0BA728000000001F
:02015E00080097
:100160002D208A110A128000840AA10A0319A20A0A
:08017000F003031DB028080094
:100178008312031306108614A5012508073C031CE7
:10018800D4282508A9002420A40124083F3C031CE6
:10019800D2282308A9004320A40AC928A50AC128EF
:1001A80086100614A5012508073C031CEA28250823
:1001B800A9002420A40124083F3C031CE8282308A4
:0E01C800A9004320A40ADF28A50AD7280800B2
:1001D60083120313A00183168612061206118611D6
:1001E60006108610831286128030F0007008083ED2
:1001F60084008001061186110610861486163F308B
:1002060088000B20C03088000B20061486103F3073
:0C02160088000B20C03088000B2008007E
:100222008316031788018901831287138813EB2031
:10023200A301BC200030A3001030A4004C209F205A
:100242000030A3001430A4004C209F200030A300F3
:100252000C30A4004C209F203B30A3000130A400AE
:100262004C209F200030A3000830A4004C209F2087
:040272001B293A29E1
:1002760000340034003400340034003400340034D8
:1002860000340034003400340034003400340034C8
:1002960000340034003400340034003400340034B8
:1002A60000340034003400340034003400340034A8
:1002B6000034003400340034003400340034003498
:1002C6000034003400340034003400340034003488
:1002D6000034003400340034003400340034003478
:1002E6000034003400348034003440348034003428
:1002F600623444340834103400348034483484344E
:1003060000340034603420340034C03440340034C7
:1003160080340034003400340034003400340034B7
:100326000034003400340034003400340034003427
:100336000034003400340034003400340034003417
:100346000034003400340034003400340034003407
:1003560000340034003400340034003400340034F7
:1003660000340034003400340034003400340034E7
:1003760000340034003400340034003400340034D7
:1003860000340034003400340034003400340034C7
:1003960000340034003400340034003400340034B7
:1003A60000340034003400340034003400340034A7
:1003B6000034003400340034003400340034003497
:1003C6000034003400340034003400340034003487
:1003D60000340034003400340034003400348034F7
:1003E60010348434793404340334013480340034D2
:1003F6000034003400340034003400341834173428
:100406001034003400340034203420344034803436
:100416008034013422349C34703480340034003407
:100426000034003400340034003400340034003426
:100436000034003400340034003400340034003416
:100446000034003400340034003400340034003406
:1004560000340034003400340034003400340034F6
:1004660000340034003400340034003400340034E6
:1004760000340034003400340034003400340034D6
:1004860000340034003400340034003400340034C6
:1004960000340034003400340034003400340034B6
:1004A6000034803400344034C03400346034403486
:1004B6001034403460342034803440340034803486
:1004C6000034003400340034003400342034103456
:1004D600003400340034043400340034003403346F
:1004E600003403340034043404340634083410343D
:1004F6007034C03400340034003400340034003426
:10050600003400348034203400340034083401349C
:10051600073406340434063404340734043404340B
:1005260000340834083410347034C03400340034D5
:10053600003400340034003400340034F034003425
:1005460000347A347A3400344034003402340034CF
:100556000434F834003400340034003400340034F9
:1005660000340034003400340034003400340034E5
:100576000034003400340034803480340034403495
:1005860080340034603480343034603418341834A5
:1005960020340C341434123406340C340334073447
:1005A6000434033403341A3401341F347D343C34A8
:1005B6003C343C347D341934063402340334053477
:1005C6000434023409340C34063412340A34243424
:1005D6003034403460343034C034C0342034A03435
:1005E600C0344034103490340034083408340434B1
:1005F600063401340034003400340034003400344E
:100606000034003401340034003400340034003443
:100616000034003420342034203420342034003494
:100626001034103408340C340634033480348034E7
:10063600803400340034C034C0348034FF34003495
:100646000034073445340834C03487340034003469
:100656008034FF340834E034F034F034E034C0340D
:10066600C0348034003400340034003400340034A4
:10067600003400340034013401340134813401344F
:100686003F3421342134213421347B343F34253422
:10069600253425343F34BB342134213421343934D4
:1006A60025342334A33427342F343D3439343134BC
:1006B600213423343F34273425342D343934393426
:1006C6003F343F34213421343B347F343F342534A6
:1006D600253425342F343B3439343134E134213454
:1006E6002134213421343F3421340134C0340034E0
:1006F600E0342034203400340034003430343034D4
:1007060020340034883498349834103480348C344F
:100716004C34483440340034C634E634243420346F
:1007260000340334E334F234103410340134013429
:100736000934F834F834003400340434FF34003417
:1007460000348D348834983490343D340134003488
:10075600DA34FF340034FF34FF34FF34FF34FF341F
:10076600FF34FF34FF34FF34FE34FC34FC34F834F9
:1007760000340034003400340034003400340034D3
:10078600FF340034003400340034FF34563400346F
:10079600003400340034FF340034003400340034B4
:1007A600FF34FF341034AC34F4343E34253427346B
:1007B600233422342234E2342234223422342334C1
:1007C600253426343A34E434F8340034FF34FF3424
:1007D600003400340034FF34FF3400340034FF3476
:1007E6000034003400340034003400340034003463
:1007F600FF340234003400347F3441344134003451
:100806003F343F3400340034203420343F343F3406
:1008160000348034803480349F349F349034903454
:10082600803480348F348F348834083448344834E4
:100836004034C7344734C034C03404340F34003431
:100846001034053421342234263420343034003434
:100856000F3406340034FF34FF34FF34FF34FF34E2
:10086600FF34FF34FF34FF34FF34FF34FF34FF34EA
:100876000034003400340034003400344034403452
:100886007F3440344034403440347F346B34403419
:100896004034403440347F34403440344034403473
:1008A6007F347F34403454347F34403440344034D1
:1008B6004034403440347F34403440344034403453
:1008C6004034403440347F347F3440347F347F3486
:1008D6004034403440347F347F34403440347F34B5
:1008E6004034403440344034403440344034F034B2
:1008F600FF34003400340034003401340134013450
:100906000134003400340034003400340034003440
:1009160000340034003400340034FF344034FF34F3
:10092600FF340034103410341034103410341034C2
:100936001034FF340034FF34FF3400340034003404
:100946000034003400340034003400340034003401
:10095600003400340034FF343F34FF340F34FF34A6
:10096600FF34FF34FF34FF34FF34FF34FF34FF34E9
:1009760000340034003400340034003406340634C5
:100986000634063406340634063406340634063491
:100996000634063406340634063406340634063481
:1009A6000634063406340634063406340634063471
:1009B6000634063406340634063406340634063461
:1009C6000634063406340634063406340634063451
:1009D6000634063406340634063406340634063441
:1009E60006340634003400340034003400343F3416
:1009F6002B3428342834283428342834283428340E
:100A06002834283428342834283428342834283400
:100A1600283428342834283428342F3420343F34DA
:100A26003F34203420342034203420342034203401
:100A360020343F3420342F342F34283428342834BB
:100A460028342834283428342834283428342834C0
:100A56002834283428343F342034203420342F34AA
:100A66003F342F342F343F343F343F343F343F3408
:101000000034003400340034003400340034003440
:101010000034003400340034003400340034003430
:101020000034003400340034003400340034003420
:101030000034003400340034003400340034003410
:101040000034003400340034003400340034003400
:1010500000340034003400340034003400340034F0
:1010600000340034003400340034003400340034E0
:1010700000340034003400340034003400340034D0
:101080000034C034F0341034B03430342034B03450
:1010900070342034803400340034003400340034A0
:1010A0008034803480348034803480348034F03430
:1010B00038341834F8340834C83408343034003440
:1010C000C0348034803480348034003400340034C0
:1010D0000034003400340034003400340034003470
:1010E0000034003400340034003400340034003460
:1010F0000034003400340034003400340034003450
:10110000003400340034003400340034003400343F
:10111000003400340034003400340034003400342F
:10112000003400340034003400340034003400341F
:10113000003400340034003400340034003400340F
:1011400000340034003400340034003400340034FF
:1011500000340034003400340034003400340034EF
:1011600000340034003400340034C034C03420343F
:1011700020342034103410341034003408340E3449
:101180001F341734213440348134023404340F3492
:1011900010340834073401347B3403340334053409
:1011A0007934E134413440344034403440344134C3
:1011B0004134C234C234C5344334483452347134B7
:1011C00021343F34BC34803401341F343C34203467
:1011D000403440348034803480340034003400346F
:1011E000003400340034003400340034003400345F
:1011F000003400340034003400340034003400344F
:10120000003400340034003400340034003400343E
:10121000003400340034003400340034003400342E
:1012200080348034403420340034103400340834A6
:1012300008340834083408340834C83418340834FE
:1012400008340834683418341834183430346034AE
:10125000C03400340034003400340034003400342E
:10126000003400340034C034FE347F3400340134A0
:1012700000340234043408341034203440348034D0
:101280008034403440342034203411341A340C3447
:101290001C342434C4340234033400340034E034C5
:1012A00010340834C4343234283405340534C2349C
:1012B00026344034A0341134B93491349134993403
:1012C00081349234943430347234C234C0349D3416
:1012D0008C341A34243444340934913467348C34D3
:1012E00038346034C0340034003400340034003406
:1012F000003400340034003400340034003400344E
:10130000003400340034003400340034003400343D
:101310000034003400344034303418340434C234DF
:10132000213410340034043404348034C234403462
:10133000003420340034023442344C34403400341D
:10134000003401340E3430340034013420347C3421
:101350000F340034003400340034003400340034DE
:1013600000340034003400340134033402340434D3
:10137000043406340434083418343034203440340F
:10138000C03480340034003400340034003400347D
:1013900000340034003403340434103440348734CF
:1013A0000834203407344C345034A834203400340A
:1013B000403402340534823485348834883410341F
:1013C0001034183488348C34863405344334623411
:1013D0000834003404348C3440342134103407345D
:1013E00000340034013403340E3418343034C03443
:1013F00080340034003400340034003400340034CD
:101400000034003400340034003400340034E0345C
:101410001C3407340134803470340C340334803489
:101420008034003470340C3442344134403440341D
:10143000803400340034003400340034003400348C
:1014400000340034003400340034003400340034FC
:1014500000340034003400340034003400340034EC
:1014600000340034003400340034003400340034DC
:101470000034003400340034003480340034E0346C
:10148000C034D0348134DA34263404340034103497
:10149000303420344034C0348034003400340134DB
:1014A00006340834703410342034003400340134ED
:1014B00010349034923492349034903480348034A8
:1014C000803400340034423442344A34483448349E
:1014D0004934483440340034003420342034243437
:1014E0002434243424346434443440344034403488
:1014F00001343F340034003400340034003400340C
:10150000003400340034003400340034FF348134BB
:10151000003400340034003401340034003400342A
:101520000F3460348034003400341E34203480346E
:101530000034033416340C347034803400340034F6
:1015400000340034003400340034003400340034FB
:1015500000340034003400340034003400340034EB
:1015600000340034003400340034003400340034DB
:101570000034003480340834023400348034CA34F7
:101580002F3419340734003400340034003400346C
:1015900000340034003401340134023402340234A3
:1015A0000434043404340434043400340234033482
:1015B0000334003400340034003400340034003488
:1015C000003400340034003400340034003400347B
:1015D000003400340034003400340034003400346B
:1015E000003400340034003400340034003400345B
:1015F000003400340034003400340034003400344B
:101600000034003400340034003400340034033437
:1016100002340434003408340034103410341034EC
:10162000E0340034C03411349434183400341034AD
:101630001134023404348C3488340F3400340034D0
:1016400000340034003400340034003400340034FA
:1016500000340034003400340034003400340034EA
:1016600000348034803440340034603420343834E2
:10167000183409348D3424342434003405340134CE
:1016800000340034003400340034003400340034BA
:1016900000340034003400340034003400340034AA
:1016A000003400340034003400340034003400349A
:1016B000003400340034003400340034003400348A
:1016C000003400340034003400340034003400347A
:1016D000003400340034003400340034003400346A
:1016E000003400340034003400340034003400345A
:1016F000003400340034003400340034003400344A
:101700000034003400340034003400340034003439
:101710000034003400340034003400340034003429
:101720000034023400340034003400340434023411
:1017300005340834023404340034083404340834E2
:1017400001340334183405341834143410341C3480
:1017500000341634003408340134093400340834B9
:1017600008340734083401340434003407340234B4
:1017700003340134003400340034003400340034C5
:1017800000340034003400340034003400340034B9
:1017900000340034003400340034003400340034A9
:1017A0000034003400340034003400340034003499
:1017B0000034003400340034003400340034003489
:1017C0000034003400340034003400340034003479
:1017D0000034003400340034003400340034003469
:1017E0000034003400340034003400340034003459
:1017F0000034003400340034003400340034003449
:10180000003400340034003404340A343A343E34B2
:101810007A34D234D034D034D034D034D03430349C
:10182000BC343C34AC34AC34F634F734FF346E346E
:10183000FE34BE347E347E345C34983460340034FC
:1018400000340034003400340034003400340034F8
:1018500000340034003400340034003400340034E8
:1018600000340034003400340034003400340034D8
:1018700000340034003400340034003400340034C8
:1018800080348034803480340034813481348D3429
:101890008F348834C0345034D034C83408340834D9
:1018A0008C340C343A343A3447348234873400343C
:1018B000A134D0347034F034A034A634A634993432
:1018C0008B348E348D348F340F341B3417341734EB
:1018D0001B340F340F348F34BE34BB34BF349F34C9
:1018E000CC348C348F34F634F634F634E634BD34EC
:1018F000FF34B134BD34EE34C3344C3400340034DE
:10190000003400340034003400340034003418341F
:101910001C34DE347E347B3439343F347D347834C7
:101920000F340F34033403344134C134E134C1344F
:10193000C034C03400340034003400340034003487
:1019400000340034003400340034003400340034F7
:1019500000340034003400340034003400340034E7
:1019600000340034003400340034003400340034D7
:1019700000340034003400340034623463341D34E5
:101980009934C0344234C734843484348534873441
:101990000034003480345034783451347134763427
:1019A0007E343F341F341634E334FD34F834E034ED
:1019B000C034C134C234C234C234C334813400347C
:1019C000013483348334BF34BF34E634EA34EA3438
:1019D000BC34F834F134C334423447348134853470
:1019E0008534AE34FF34FF34F734FF34FF34FE3433
:1019F000FE34FF34FB34FD34D234D03400340034B0
:101A0000003400340034003420343C343434F734AF
:101A1000FE34F134F534EF34FF34BC34B634FE34E4
:101A2000FC34E634F334E934F73497349934FF3432
:101A3000F734F334DF34DD34FC3478347834F8347C
:101A400068347834F83470347034303410341034EE
:101A50001034103410341034103410341034103466
:101A60001034103410341034103410341034103456
:101A70001034103410341034103410341034103446
:101A80001034103410341034103410341034113435
:101A90001134113411341034103410341034103423
:101AA00010341034103410341F341F341F341F34DA
:101AB00011341134113411341134113411341234FD
:101AC0001234193419342C340F341F343F343F345A
:101AD0006F347F343A343F3477347734FF34BF3453
:101AE000353416341F340B341F341F342F343F3435
:101AF0003F34FF34CF34FF34FF342F3425340034E7
:101B00000034003400340034003400342034FB341A
:101B1000FF34FF34FF34FF34FF3483348134C13465
:101B2000E334E33433343734E534C73407340F3423
:101B30000B341B341F341C343834F03460346034BC
:101B400061346134613461346034603460346034F1
:101B500060346034603460346034603460346034E5
:101B6000603460346034603460346034E034603455
:101B700060346034603460346034603460346034C5
:101B800060346034603460346034603460346034B5
:101B900060346034603460346034603460346034A5
:101BA0006034603460346034603460346034603495
:101BB0006034603460346034603460346034603485
:101BC0006034603460346034603460346034603475
:101BD0006034603460346034603460346034613464
:101BE0006334623466346C34F834F0346034603416
:101BF0000034FF34FF34FF34FF3400340034003449
:101C00000034003400340034023417341D342134DD
:101C10002134FF34FF34FF34FF34A734A7343A347F
:101C200018347834F834E83479347B347A349E3498
:101C300090340034FC349E349F347F3460348034DC
:101C40000E340A340A340A340A340A340A340E349C
:101C50000034003400340E340A340A340A340A34AE
:101C60000A340E340E34003400348034FF34F83437
:101C7000E834C034C034FE34FE34FE34223422341E
:101C80002234223422342234FE34223422342234C8
:101C90002234223422342234FE34FE34FE343234F0
:101CA000003400340034FE348234BA343A343A34E6
:101CB00062346234623462340234FE3400340034FC
:101CC0000034FE34FE34FE34FE3422342234223416
:101CD0002234FE34FE34223422342234223422349C
:101CE000FE34FE34FE34E0347F34FF34C234DE345C
:101CF0007E34FF34FF34FF34FF34003400340034CA
:101D000000340034003400340034803480348034B3
:101D10006034BF34FF347F34FF34FF34E134C334E4
:101D2000CF348C34893408340834083408341934F6
:101D30003F343B340B344F344F344934E934FE34B0
:101D4000A834A034A034203420342034203420346B
:101D500020342034203420342034203420342034E3
:101D600020342034203420343C343F3427342F3482
:101D70003F343F347D3449340934E134403448340D
:101D80007834783478347934493441344D345134AA
:101D9000193479344934793431347134493449341B
:101DA000C834C83478347F345034513440344034EB
:101DB000403450345034F034E0347F3418349834A4
:101DC0009034C934E934F934F93438348834083477
:101DD0009034F13479347834A034F834F0347034F9
:101DE000093479343F347F34783468344D344C349A
:101DF0007C34FF34FF34FF34FF34F83400340034D3
:101E00000034003400340034003400340034003432
:101E10000034003400340034003400340034003422
:101E20000034003400340034003400340034003412
:101E30000034003400340034003400340034003402
:101E400001340134033403340334063406340C34CF
:101E50000C34183418341034303420346034603486
:101E6000C034C03480348034003400340034003452
:101E700000340034003400340034013400340234BF
:101E800002340634063400340034043400340034A0
:101E900002340234223462346234D034D134913486
:101EA00091341034103410340834083408340434B5
:101EB0000634023401340134003400340034003478
:101EC0000034003400340034003400340034003472
:101ED0000034003400340034003400340034003462
:101EE0000034003480348034C034C034E034E03412
:101EF000F834E734EF34FF347734433400340034BB
:101F000000340034003400340034003400348034B1
:101F100080340034C034C034C034C034C034C03421
:101F2000C034C034C034C034C034C034C034C03411
:101F3000C034C034C034C034C03440344034403481
:101F400040344034403440344034403440344034F1
:101F500040344034403440344034403440346034C1
:101F60004034403441344134633463346234663441
:101F700066346C346C34783478347834703470343B
:101F80002034003400340034003400340034003491
:101F900000340034003400340034003400340134A0
:101FA0000134013403340234063406340C340C3466
:101FB0001834183430343034303430343034303431
:101FC00030343034303430343034303430343034F1
:101FD00030343034303430343034303430343034E1
:101FE00030343034303430343034303430343034D1
:101FF0001034103400340034003400340034003421
:102000000034003400340034003400340034003430
:10201000003400348034C034C034C034C034C034E0
:10202000C0340034C034C034C03400340034003410
:1020300000340034003400348034C034C034C03440
:10204000C03480340034C034C034C034C034C034F0
:10205000C034C034803400340034003400340034E0
:1020600000340034C034C034C03400340034C034D0
:10207000C034C034C034003400348034C034C03480
:10208000C034C034C0340034003400348034C03430
:10209000C034C034C03480340034003400340034E0
:1020A000003480348034C0340034003400340034D0
:1020B0008034C034C034C034C03480340034003480
:1020C00000348034C034C034C034C034C0348034B0
:1020D0000034003400340034003400340034003460
:1020E0000034003400340034003400340034003450
:1020F0000034003400340034003400340034003440
:10210000003400340034003400340034003400342F
:102110003E347F34FF34F734C134D934FD34FD34D8
:10212000FC34FC34FF34FF34FF34E034C034C034BA
:10213000C03400343E347F34FF34F734C134C1340A
:10214000C134C1340034FF34FF34FF34E334C134CC
:10215000E334FF34FF347F341C3400340034003463
:1021600000340034FF34FF34FF341E343F34FF3476
:10217000FF34F33480340034C734CF34CF34DF3409
:10218000FD34F934F934703400347F34FF34FF34D3
:10219000C334C134FF34FF347F3400340234073495
:1021A0000734FF34FF34FF340034003400347F340C
:1021B000FF34FF34C334C134FF34FF347F34003480
:1021C000F334FF34FF34DD34DD34FF34FF34F334D3
:1021D000003400340034003400340034003400345F
:1021E000003400340034003400340034003400344F
:1021F000003400340034003400340034003400343F
:10220000003400340034003400340034003400342E
:102210000034003400340134013401340134013419
:102220000134003401340134013401340134013407
:1022300001340034003400340034013401340134FA
:1022400001340134003401340134013401340134E7
:1022500001340134003400340034003400340034DC
:1022600000340034013401340134003400340134CA
:1022700001340134013400340134013401340134B7
:1022800001340134003400340034003400340134AB
:10229000013401340134003400340034003400349B
:1022A000003401340134013400340034003400348B
:1022B000003401340134013401340034003400347A
:1022C0000034013401340134013401340134003468
:1022D000003400340034003400340034003400345E
:1022E000003400340034003400340034003400344E
:1022F000003400340034003400340034003400343E
:10230000003400340034003400340034003400342D
:102310001E341E3400341E341E340034FE34FE34A9
:10232000FE34F034E034F034FE34FE34FE34003455
:10233000C034E034F0343034B034F034F03460344D
:102340000034FE34FE34FE3400340034FE34FE34F7
:10235000FE3400340034C034E034F03470343034AF
:102360007034F034F034E03400340034003400349D
:102370003034F034F034C034C034F034F034C0348D
:10238000C034F034F03430340034C034E034F0344D
:10239000703430347034F034F034E0340034F034DD
:1023A000F034F034703430340034FE34FE34FE3413
:1023B00000340034C034F034F034703430347034CD
:1023C000FE34FE34FE3400341E341E3400341E3419
:1023D0001E3400340034003400340034003400343F
:1023E000003400340034003400340034003400344D
:1023F000003400340034003400340034003400343D
:10240000003400340034003400340034003400342C
:102410000034003400340034003400340F340F34FE
:102420000F340034003400340F340F340F340034D0
:10243000033407340F340F340F340E340E340C349D
:1024400000340F340F340F34003400340F340F34A1
:102450000F3400340034033407340F340E340E3498
:102460000E340F34073403340034003400340034A5
:10247000003401340F340F340F34033407340F3475
:102480000F340F34013400340034033407340F3474
:102490000E340E340E340F340734033400340F344A
:1024A0000F340F340034003400340F340F340F3441
:1024B00000340034033407340F340E340E340E3439
:1024C0000F340F340F34003400340034003400343F
:1024D000003400340034003400340034003400345C
:1024E000003400340034003400340034003400344C
:1024F000003400340034003400340034003400343C
:10250000003400340034003400340034003400342B
:10251000003400340034003400340034003400341B
:10252000003400340034003400340034003400340B
:1025300000340034003400340034003400340034FB
:10254000003400340034803480348034803480346B
:1025500080348034803480348034803400340034DB
:102560001034B834F83490340034F034F034F034AB
:1025700000348034803480348034003480348034BB
:10258000803480348034003400340034803480342B
:10259000803480348034803400340034F034F034BB
:1025A000F03470347034F034E034C034003400342B
:1025B000803480348034803480348034003400347B
:1025C00000348034803480348034803400340034EB
:1025D000003480348034803480348034803400345B
:1025E000803480348034803480348034003400344B
:1025F000F034F034F034003400340034003400346B
:10260000003400340034003400340034003400342A
:10261000003400340034003400340034003400341A
:10262000003400340034003400340034003400340A
:1026300000340034003400340034003400340034FA
:102640000034003400347F347F347F3403347F34EB
:102650007F347F34033403347F347F347F34003459
:1026600000347F347F347F3400347F347F347F34D0
:102670000E343F347F347B34603400347F347F3415
:102680007F340334013400341E343F347F347334D8
:10269000713473347F343F341F3400347F347F34DB
:1026A0007F340E340E3407340734033400343834A6
:1026B0007D347D346D346D347F347F347F34003429
:1026C000773467346F347D347D34393400341E34CC
:1026D0003F347F347334713473347134003438349C
:1026E0007D347D346D346D347F347F347F340034F9
:1026F0007F347F347F3400340034003400340034BD
:102700000034003400340034003400340034003429
:102710000034003400340034003400340034003419
:102720000034003400340034003400340034003409
:1027300000340034003400340034003400340034F9
:102910000034003400340034803480348034803417
:1029200080344034403440344034403440342034E7
:1029300020342034203420342034203420342034F7
:1029400020342034203420342034203420342034E7
:1029500020342034203420342034203420342034D7
:1029600020342034203420342034203420342034C7
:1029700020342034203420342034203420342034B7
:1029800020342034A034A034A0346034E034E03467
:1029900060346034603420340034203420342034F7
:1029A00020342034203420342034203400340034C7
:1029B0004034403440340034803400340034003437
:1029C0000034003400340034003400340034003467
:1029D0000034003400340034003400340034003457
:1029E0000034003400340034003400340034003447
:1029F0000034003400340034003400340034003437
:102A000000340034003400340034FE340034013427
:102A10000134013401340134FD34FD34FD34FD341E
:102A2000013401340134013401340134FD34FD3406
:102A3000FD34FD340134013401340134FD34FD34FE
:102A4000FD34FD34F934F134E134C1348134C1341E
:102A5000E134F934FD34FD34FD34FD34FD3401340A
:102A6000013401340134FD34FD34FD34FD34DD34F2
:102A7000DD34DD341D3411340134FF3401340134CC
:102A8000013401340034FE340134A83408340834ED
:102A90000834083408340834083408340834083456
:102AA00008340834083408341034E034183424343A
:102AB0008434003402348234053451344434703464
:102AC000A034C03460346034203400348034803426
:102AD000C034C034C03440340034003400340034D6
:102AE00000348034003400340034003400340034C6
:102AF0000034003400340034003400340034003436
:102B0000003400340034003400343F346034603426
:102B10006034E034603460347F347F347F347F3419
:102B20007C347C347C347C34603460347F347F3457
:102B30007F347F3460346034603460347F347F3479
:102B40007F347F34613467346F347F347F346F3443
:102B50006734633461347F347F347F347F3460344E
:102B60006034603460347F347F347F347F347D342C
:102B70007D347D347C34743460347F34403440346C
:102B80004034A0346034FC34F63401340E3406345E
:102B90000634023402340234023402340234023481
:102BA00002340234023402340234423472343C348B
:102BB000203410341034003404340234033402342A
:102BC0000034003400340434043404340434143441
:102BD00010341034103410341034093409342934CA
:102BE0007034203443340534F0347E34AE348034D1
:102BF00038340034003400340034003400340034FD
:102C00000034003400340034003400340034003424
:102C1000003401340134013401340134013401340D
:102C2000013401347F347F347F347F34FF34FF3408
:102C3000F734FB347B34BF345F345D347D34BD34D2
:102C4000BD343F345D345934B1347334F334E53436
:102C5000CF341B343F347734FF34CF34BF34FF34A8
:102C6000FF34FF34FF34FF34FF34FF34FF347F344C
:102C70007F347F347F347F347F347F347F34FF343C
:102C8000FF34FF347F347F347D34783478347834C3
:102C900078347834F8347834783478347834783454
:102CA0007834F834F834E0348734003400340034B5
:102CB000003400340034003400348034F034F8340C
:102CC0007834BC34DC345C34FC341C341C343C3488
:102CD0005C345C343C347834F834F8346034C034D8
:102CE0008F34A834D83488343134443448340234EE
:102CF000A034603400340034003400340034003434
:102D00000034003400348034C034F834F834F834FB
:102D1000F834FC34FE34FE34FE34FE34FE34FE342B
:102D2000FE34FE34FE34FE34FE34FF34FF34FF3410
:102D3000FF34FF34F634EF34D034F634AE34AD34EF
:102D4000A9348034D134D034E034F734F934FF344A
:102D5000FF34FC34DC34F0347F34FF34DF34FF34B0
:102D6000FF34FF34FF34FF34FF34FE34FE34FF34CD
:102D7000FF34FF34FF34FF34FF34FF34FE34FF34BC
:102D8000FF34FF34FF34FF34FF34FF34FE34FE34AD
:102D9000FE34FE34FE34FE34FE34FE34FE34FE34A3
:102DA000FE34FE34FE34FE34FF34FF34FF34FF348F
:102DB000FF34FF34FE34FF34BE34FF34FF34FD34BF
:102DC000F034EF34DD34DF34FE34A8348834AA34F0
:102DD000C434D034E434E634F8347F347E349C3464
:102DE000D834E034F034F034F234F234F034B13426
:102DF0002034003400340034003400340034003413
:102E0000003400340034013401340134013403341B
:102E100003340334073407340734073407340F34DA
:102E20000F340F3407340F340F340F3407340734A2
:102E30000F340E340F340D340F342F342B342B3425
:102E40002B342B342B342F346F34EF34FF34FD34D8
:102E5000FD34FF34FE34FF34FF34FF34FF34FF34DD
:102E6000BF34BF34EF34EF34EF34BF34FF34BF34FA
:102E7000FF34FF34FF34FF34FF34FF34FF34FF34BA
:102E8000FF34FF34FF34FF34FF34FF34FF34FF34AA
:102E9000FF34FF34FF34FF34FF34FF34FF34FF349A
:102EA000FF34FF34FF34FF347F347F347F347F348A
:102EB000FF34FF34BF34BF34BF34BF34FF34FE347B
:102EC000FF34FD34FF34FF34FF34FB34FF34FF3470
:102ED000FF347F347D343F341F341F341F341F349C
:102EE0001F341F343F340F340F3407340734033496
:102EF000033403340034003400340034003400342C
:102F00000034003400340034003400340034003421
:102F10000034003400340034003400340034003411
:102F20000034003400340034003400340034003401
:102F300000340034003400340034003400340034F1
:102F400000340034003400340034003400340034E1
:102F500000340034003400340034013401340034CF
:102F600001340134003400340034003400340034BF
:102F700000340034003400340134013401340134AD
:102F800001340134013401340334033403340B3489
:102F90000B340B340B34073403340E34063406344C
:102FA0000634023412341334133403341734153412
:102FB0001534113401341334133403340634063415
:102FC0000E340F340F3407340F340F340F340B34F6
:102FD000023400340034003400340034003400344F
:102FE0000034003400340034003400340034003441
:102FF0000034003400340034003400340034003431
:04400E00F22F000786
:00000001FF
