:020000001628C0
:0E0006008312031321088A00200882000800DC
:1000140003208A110A128000840AA00A0319A10A83
:08002400F003031D0A28080087
:10002C006F3083120313A0000030A1002230840033
:10003C002830F0000A20831686018701F301F401B1
:10004C008030F000803074067002031D2F28730876
:10005C00093C031C6D287308F0007408F100F00DC6
:10006C00F10D70107008223E840000088312860087
:10007C00F501F6018030F000803076067002031D29
:10008C0049287508093C031C692883127508F0007F
:10009C007608F100F00DF10D70107008363E8400FA
:1000AC00000887000230FB000430FC00BA30FD0071
:1000BC00FD0B5E28FC0B5E28FB0B5E280000F50A8E
:1000CC000319F60A4028F30A0319F40A26282428EF
:0200DC006E288C
:1000DE003F340034063400345B3400344F34003483
:1000EE00663400346D3400347D340034073400340B
:0800FE007F3400346F3400343C
:100106003F340034063400345B3400344F3400345A
:10011600663400346D3400347D34003407340034E2
:080126007F3400346F34003413
:02400E007A3BFB
:00000001FF
