:020000000328D3
:100006007E3083129000003091000630920000305E
:1000160093006D30940000309500793096000030E2
:10002600970033309800003099005B309A0000301A
:100036009B005F309C0000309D0070309E000030B9
:100046009F007F30A0000030A1007B30A20000306E
:10005600A30083168601831286018E018F018030EC
:100066000F06C00080304002031D3B280A300E02F6
:1000760003185B280E08C0000F08C100C00DC10D93
:1000860040104008103E8400000886000B30CB006C
:100096002630CC005D30CD00CD0B4F28CC0B4F2841
:1000A600CB0B4F28000000008E0A03198F0A322856
:0400B60030285C286A
:02400E00FA3F77
:00000001FF
