:020000000328D3
:100006007E3083128E0000308F0006309000003064
:1000160091006D30920000309300793094000030EA
:10002600950033309600003097005B309800003022
:1000360099005F309A0000309B0070309C000030C1
:100046009D007F309E0000309F007B30A000003076
:10005600A1008316860183128601C301C401803084
:100066004406C00080304002031D3B280A3043028C
:10007600031859284308C0004408C100C00DC10D2B
:10008600401040080E3E8400000886006630CB0013
:100096007630CC00C130CD00CD0B4F28CC0B4F288D
:1000A600CB0B4F28C30A0319C40A322830285A2812
:02400E00FA3F77
:00000001FF
